{
  "contractName": "BookStore",
  "abi": [
    {
      "anonymous": false,
      "inputs": [
        {
          "indexed": false,
          "internalType": "string",
          "name": "ISBN",
          "type": "string"
        },
        {
          "indexed": false,
          "internalType": "string",
          "name": "bookName",
          "type": "string"
        },
        {
          "indexed": false,
          "internalType": "string",
          "name": "userName",
          "type": "string"
        },
        {
          "indexed": false,
          "internalType": "string",
          "name": "userEmail",
          "type": "string"
        },
        {
          "indexed": false,
          "internalType": "uint256",
          "name": "timestamp",
          "type": "uint256"
        }
      ],
      "name": "BookPurchased",
      "type": "event"
    },
    {
      "inputs": [],
      "name": "purchaseCount",
      "outputs": [
        {
          "internalType": "uint256",
          "name": "",
          "type": "uint256"
        }
      ],
      "stateMutability": "view",
      "type": "function",
      "constant": true
    },
    {
      "inputs": [
        {
          "internalType": "string",
          "name": "",
          "type": "string"
        }
      ],
      "name": "purchaseTime",
      "outputs": [
        {
          "internalType": "uint256",
          "name": "",
          "type": "uint256"
        }
      ],
      "stateMutability": "view",
      "type": "function",
      "constant": true
    },
    {
      "inputs": [
        {
          "internalType": "uint256",
          "name": "",
          "type": "uint256"
        }
      ],
      "name": "purchases",
      "outputs": [
        {
          "internalType": "string",
          "name": "ISBN",
          "type": "string"
        },
        {
          "internalType": "string",
          "name": "bookName",
          "type": "string"
        },
        {
          "internalType": "uint256",
          "name": "price",
          "type": "uint256"
        },
        {
          "internalType": "uint256",
          "name": "purchasedTime",
          "type": "uint256"
        },
        {
          "internalType": "string",
          "name": "userEmail",
          "type": "string"
        },
        {
          "internalType": "string",
          "name": "userName",
          "type": "string"
        }
      ],
      "stateMutability": "view",
      "type": "function",
      "constant": true
    },
    {
      "inputs": [
        {
          "internalType": "string",
          "name": "_ISBN",
          "type": "string"
        },
        {
          "internalType": "string",
          "name": "_bookName",
          "type": "string"
        },
        {
          "internalType": "uint256",
          "name": "_price",
          "type": "uint256"
        },
        {
          "internalType": "string",
          "name": "_userEmail",
          "type": "string"
        },
        {
          "internalType": "string",
          "name": "_userName",
          "type": "string"
        }
      ],
      "name": "purchaseBook",
      "outputs": [],
      "stateMutability": "nonpayable",
      "type": "function"
    },
    {
      "inputs": [
        {
          "internalType": "uint256",
          "name": "_purchaseId",
          "type": "uint256"
        }
      ],
      "name": "getPurchaseDetails",
      "outputs": [
        {
          "components": [
            {
              "internalType": "string",
              "name": "ISBN",
              "type": "string"
            },
            {
              "internalType": "string",
              "name": "bookName",
              "type": "string"
            },
            {
              "internalType": "uint256",
              "name": "price",
              "type": "uint256"
            },
            {
              "internalType": "uint256",
              "name": "purchasedTime",
              "type": "uint256"
            },
            {
              "internalType": "string",
              "name": "userEmail",
              "type": "string"
            },
            {
              "internalType": "string",
              "name": "userName",
              "type": "string"
            }
          ],
          "internalType": "struct BookStore.Purchase",
          "name": "",
          "type": "tuple"
        }
      ],
      "stateMutability": "view",
      "type": "function",
      "constant": true
    },
    {
      "inputs": [
        {
          "internalType": "string",
          "name": "_ISBN",
          "type": "string"
        }
      ],
      "name": "getPurchaseTime",
      "outputs": [
        {
          "internalType": "uint256",
          "name": "",
          "type": "uint256"
        }
      ],
      "stateMutability": "view",
      "type": "function",
      "constant": true
    }
  ],
  "bytecode": "0x608060405234801561001057600080fd5b50610f51806100206000396000f3fe608060405234801561001057600080fd5b50600436106100625760003560e01c806309361088146100675780632b85ed9c1461009757806331884b76146100b55780637674682b146100e55780638392fe3114610101578063ed91d61d14610136575b600080fd5b610081600480360381019061007c9190610926565b610166565b60405161008e9190610ceb565b60405180910390f35b61009f610194565b6040516100ac9190610ceb565b60405180910390f35b6100cf60048036038101906100ca9190610a3e565b61019a565b6040516100dc9190610cc9565b60405180910390f35b6100ff60048036038101906100fa9190610967565b610422565b005b61011b60048036038101906101169190610a3e565b61054c565b60405161012d96959493929190610c4c565b60405180910390f35b610150600480360381019061014b9190610926565b6107a8565b60405161015d9190610ceb565b60405180910390f35b6001818051602081018201805184825260208301602085012081835280955050505050506000915090505481565b60025481565b6101a26107d0565b6000808381526020019081526020016000206040518060c00160405290816000820180546101cf90610deb565b80601f01602080910402602001604051908101604052809291908181526020018280546101fb90610deb565b80156102485780601f1061021d57610100808354040283529160200191610248565b820191906000526020600020905b81548152906001019060200180831161022b57829003601f168201915b5050505050815260200160018201805461026190610deb565b80601f016020809104026020016040519081016040528092919081815260200182805461028d90610deb565b80156102da5780601f106102af576101008083540402835291602001916102da565b820191906000526020600020905b8154815290600101906020018083116102bd57829003601f168201915b50505050508152602001600282015481526020016003820154815260200160048201805461030790610deb565b80601f016020809104026020016040519081016040528092919081815260200182805461033390610deb565b80156103805780601f1061035557610100808354040283529160200191610380565b820191906000526020600020905b81548152906001019060200180831161036357829003601f168201915b5050505050815260200160058201805461039990610deb565b80601f01602080910402602001604051908101604052809291908181526020018280546103c590610deb565b80156104125780601f106103e757610100808354040283529160200191610412565b820191906000526020600020905b8154815290600101906020018083116103f557829003601f168201915b5050505050815250509050919050565b6002600081548092919061043590610e1d565b91905055506040518060c001604052808681526020018581526020018481526020014281526020018381526020018281525060008060025481526020019081526020016000206000820151816000019080519060200190610497929190610806565b5060208201518160010190805190602001906104b4929190610806565b50604082015181600201556060820151816003015560808201518160040190805190602001906104e5929190610806565b5060a0820151816005019080519060200190610502929190610806565b509050507fa144e86e63a11db7469ad644f2f2f5634588543cf0396bed569f1a8f1cb940c4858583854260405161053d959493929190610bdd565b60405180910390a15050505050565b600060205280600052604060002060009150905080600001805461056f90610deb565b80601f016020809104026020016040519081016040528092919081815260200182805461059b90610deb565b80156105e85780601f106105bd576101008083540402835291602001916105e8565b820191906000526020600020905b8154815290600101906020018083116105cb57829003601f168201915b5050505050908060010180546105fd90610deb565b80601f016020809104026020016040519081016040528092919081815260200182805461062990610deb565b80156106765780601f1061064b57610100808354040283529160200191610676565b820191906000526020600020905b81548152906001019060200180831161065957829003601f168201915b50505050509080600201549080600301549080600401805461069790610deb565b80601f01602080910402602001604051908101604052809291908181526020018280546106c390610deb565b80156107105780601f106106e557610100808354040283529160200191610710565b820191906000526020600020905b8154815290600101906020018083116106f357829003601f168201915b50505050509080600501805461072590610deb565b80601f016020809104026020016040519081016040528092919081815260200182805461075190610deb565b801561079e5780601f106107735761010080835404028352916020019161079e565b820191906000526020600020905b81548152906001019060200180831161078157829003601f168201915b5050505050905086565b60006001826040516107ba9190610bc6565b9081526020016040518091039020549050919050565b6040518060c001604052806060815260200160608152602001600081526020016000815260200160608152602001606081525090565b82805461081290610deb565b90600052602060002090601f016020900481019282610834576000855561087b565b82601f1061084d57805160ff191683800117855561087b565b8280016001018555821561087b579182015b8281111561087a57825182559160200191906001019061085f565b5b509050610888919061088c565b5090565b5b808211156108a557600081600090555060010161088d565b5090565b60006108bc6108b784610d37565b610d06565b9050828152602081018484840111156108d457600080fd5b6108df848285610da9565b509392505050565b600082601f8301126108f857600080fd5b81356109088482602086016108a9565b91505092915050565b60008135905061092081610f04565b92915050565b60006020828403121561093857600080fd5b600082013567ffffffffffffffff81111561095257600080fd5b61095e848285016108e7565b91505092915050565b600080600080600060a0868803121561097f57600080fd5b600086013567ffffffffffffffff81111561099957600080fd5b6109a5888289016108e7565b955050602086013567ffffffffffffffff8111156109c257600080fd5b6109ce888289016108e7565b94505060406109df88828901610911565b935050606086013567ffffffffffffffff8111156109fc57600080fd5b610a08888289016108e7565b925050608086013567ffffffffffffffff811115610a2557600080fd5b610a31888289016108e7565b9150509295509295909350565b600060208284031215610a5057600080fd5b6000610a5e84828501610911565b91505092915050565b6000610a7282610d67565b610a7c8185610d72565b9350610a8c818560208601610db8565b610a9581610ef3565b840191505092915050565b6000610aab82610d67565b610ab58185610d83565b9350610ac5818560208601610db8565b610ace81610ef3565b840191505092915050565b6000610ae482610d67565b610aee8185610d94565b9350610afe818560208601610db8565b80840191505092915050565b600060c0830160008301518482036000860152610b278282610a67565b91505060208301518482036020860152610b418282610a67565b9150506040830151610b566040860182610ba8565b506060830151610b696060860182610ba8565b5060808301518482036080860152610b818282610a67565b91505060a083015184820360a0860152610b9b8282610a67565b9150508091505092915050565b610bb181610d9f565b82525050565b610bc081610d9f565b82525050565b6000610bd28284610ad9565b915081905092915050565b600060a0820190508181036000830152610bf78188610aa0565b90508181036020830152610c0b8187610aa0565b90508181036040830152610c1f8186610aa0565b90508181036060830152610c338185610aa0565b9050610c426080830184610bb7565b9695505050505050565b600060c0820190508181036000830152610c668189610aa0565b90508181036020830152610c7a8188610aa0565b9050610c896040830187610bb7565b610c966060830186610bb7565b8181036080830152610ca88185610aa0565b905081810360a0830152610cbc8184610aa0565b9050979650505050505050565b60006020820190508181036000830152610ce38184610b0a565b905092915050565b6000602082019050610d006000830184610bb7565b92915050565b6000604051905081810181811067ffffffffffffffff82111715610d2d57610d2c610ec4565b5b8060405250919050565b600067ffffffffffffffff821115610d5257610d51610ec4565b5b601f19601f8301169050602081019050919050565b600081519050919050565b600082825260208201905092915050565b600082825260208201905092915050565b600081905092915050565b6000819050919050565b82818337600083830152505050565b60005b83811015610dd6578082015181840152602081019050610dbb565b83811115610de5576000848401525b50505050565b60006002820490506001821680610e0357607f821691505b60208210811415610e1757610e16610e95565b5b50919050565b6000610e2882610d9f565b91507fffffffffffffffffffffffffffffffffffffffffffffffffffffffffffffffff821415610e5b57610e5a610e66565b5b600182019050919050565b7f4e487b7100000000000000000000000000000000000000000000000000000000600052601160045260246000fd5b7f4e487b7100000000000000000000000000000000000000000000000000000000600052602260045260246000fd5b7f4e487b7100000000000000000000000000000000000000000000000000000000600052604160045260246000fd5b6000601f19601f8301169050919050565b610f0d81610d9f565b8114610f1857600080fd5b5056fea26469706673582212203af6f1b336f2108278f9697123b453287c341b344d366b6e78eb4ebe75d38aab64736f6c63430008000033",
  "immutableReferences": {},
  "source": "// SPDX-License-Identifier: MIT\r\npragma solidity ^0.8.0;\r\n\r\ncontract BookStore {\r\n\r\n    struct Purchase {\r\n        string ISBN;\r\n        string bookName;\r\n        uint256 price;\r\n        uint256 purchasedTime;\r\n        string userEmail;\r\n        string userName;\r\n    }\r\n\r\n    mapping(uint256 => Purchase) public purchases;\r\n    mapping(string => uint256) public purchaseTime;\r\n\r\n    event BookPurchased(string ISBN, string bookName, string userName, string userEmail, uint256 timestamp);\r\n\r\n\r\n    //purchase IDs\r\n    uint256 public purchaseCount;\r\n\r\n    function purchaseBook(\r\n        string memory _ISBN,\r\n        string memory _bookName,\r\n        uint256 _price, \r\n        string memory _userEmail, \r\n        string memory _userName\r\n    ) public {\r\n        purchaseCount++;\r\n        purchases[purchaseCount] = Purchase({\r\n            bookName: _bookName,\r\n            ISBN: _ISBN,\r\n            price: _price,\r\n            purchasedTime: block.timestamp,\r\n            userEmail: _userEmail,\r\n            userName: _userName\r\n        });\r\n\r\n        // Emit the Book Purchased event\r\n        emit BookPurchased(_ISBN, _bookName, _userName, _userEmail, block.timestamp);\r\n    }\r\n\r\n    function getPurchaseDetails(uint256 _purchaseId) public view returns (Purchase memory) {\r\n        return purchases[_purchaseId];\r\n    }\r\n\r\n    function getPurchaseTime(string memory _ISBN) public view returns (uint256) {\r\n    return purchaseTime[_ISBN];\r\n}\r\n\r\n}\r\n",
  "sourcePath": "C:\\Users\\alvis\\Documents\\Github\\decentralized-trading-platform\\dtp_truffle_project\\contracts\\BookStore.sol",
  "compiler": {
    "name": "solc",
    "version": "0.8.0+commit.c7dfd78e.Emscripten.clang"
  },
  "schemaVersion": "3.4.16",
  "updatedAt": "2023-10-07T16:46:56.129Z",
  "networkType": "ethereum",
  "devdoc": {
    "kind": "dev",
    "methods": {},
    "version": 1
  },
  "userdoc": {
    "kind": "user",
    "methods": {},
    "version": 1
  }
}