{
  "contractName": "PurchaseBook",
  "abi": [
    {
      "inputs": [],
      "stateMutability": "nonpayable",
      "type": "constructor"
    },
    {
      "anonymous": false,
      "inputs": [
        {
          "indexed": false,
          "internalType": "string",
          "name": "ISBN",
          "type": "string"
        },
        {
          "indexed": false,
          "internalType": "uint256",
          "name": "price",
          "type": "uint256"
        },
        {
          "indexed": false,
          "internalType": "string",
          "name": "purchasedBy",
          "type": "string"
        },
        {
          "indexed": false,
          "internalType": "string",
          "name": "purchaseEmail",
          "type": "string"
        },
        {
          "indexed": false,
          "internalType": "string",
          "name": "purchaseDate",
          "type": "string"
        }
      ],
      "name": "ItemPurchased",
      "type": "event"
    },
    {
      "inputs": [],
      "name": "purchaseCount",
      "outputs": [
        {
          "internalType": "uint256",
          "name": "",
          "type": "uint256"
        }
      ],
      "stateMutability": "view",
      "type": "function",
      "constant": true
    },
    {
      "inputs": [
        {
          "internalType": "uint256",
          "name": "",
          "type": "uint256"
        }
      ],
      "name": "purchases",
      "outputs": [
        {
          "internalType": "string",
          "name": "ISBN",
          "type": "string"
        },
        {
          "internalType": "uint256",
          "name": "price",
          "type": "uint256"
        },
        {
          "internalType": "string",
          "name": "purchasedBy",
          "type": "string"
        },
        {
          "internalType": "string",
          "name": "purchaseEmail",
          "type": "string"
        },
        {
          "internalType": "string",
          "name": "purchaseDate",
          "type": "string"
        }
      ],
      "stateMutability": "view",
      "type": "function",
      "constant": true
    },
    {
      "stateMutability": "payable",
      "type": "receive",
      "payable": true
    },
    {
      "inputs": [
        {
          "internalType": "string",
          "name": "_ISBN",
          "type": "string"
        },
        {
          "internalType": "uint256",
          "name": "_price",
          "type": "uint256"
        },
        {
          "internalType": "string",
          "name": "_purchasedBy",
          "type": "string"
        },
        {
          "internalType": "string",
          "name": "_purchaseEmail",
          "type": "string"
        },
        {
          "internalType": "string",
          "name": "_purchaseDate",
          "type": "string"
        }
      ],
      "name": "purchaseItem",
      "outputs": [],
      "stateMutability": "payable",
      "type": "function",
      "payable": true
    },
    {
      "inputs": [],
      "name": "getTotalPurchaseCount",
      "outputs": [
        {
          "internalType": "uint256",
          "name": "",
          "type": "uint256"
        }
      ],
      "stateMutability": "view",
      "type": "function",
      "constant": true
    },
    {
      "inputs": [
        {
          "internalType": "uint256",
          "name": "_index",
          "type": "uint256"
        }
      ],
      "name": "getPurchase",
      "outputs": [
        {
          "components": [
            {
              "internalType": "string",
              "name": "ISBN",
              "type": "string"
            },
            {
              "internalType": "uint256",
              "name": "price",
              "type": "uint256"
            },
            {
              "internalType": "string",
              "name": "purchasedBy",
              "type": "string"
            },
            {
              "internalType": "string",
              "name": "purchaseEmail",
              "type": "string"
            },
            {
              "internalType": "string",
              "name": "purchaseDate",
              "type": "string"
            }
          ],
          "internalType": "struct PurchaseBook.Purchase",
          "name": "",
          "type": "tuple"
        }
      ],
      "stateMutability": "view",
      "type": "function",
      "constant": true
    }
  ],
  "bytecode": "0x608060405234801561001057600080fd5b50600060018190555061118d806100286000396000f3fe60806040526004361061004e5760003560e01c80632b85ed9c1461005a5780633742a9f7146100855780638392fe31146100c25780639348fd3f14610103578063c11563f31461012e57610055565b3661005557005b600080fd5b34801561006657600080fd5b5061006f61014a565b60405161007c9190611037565b60405180910390f35b34801561009157600080fd5b506100ac60048036036100a79190810190610b7a565b610150565b6040516100b99190611015565b60405180910390f35b3480156100ce57600080fd5b506100e960048036036100e49190810190610b7a565b61045f565b6040516100fa959493929190610ee6565b60405180910390f35b34801561010f57600080fd5b506101186106f5565b6040516101259190611037565b60405180910390f35b61014860048036036101439190810190610aa3565b6106ff565b005b60015481565b610158610966565b60008211801561016a57506001548211155b6101a9576040517f08c379a00000000000000000000000000000000000000000000000000000000081526004016101a090610f75565b60405180910390fd5b6000808381526020019081526020016000206040518060a0016040529081600082018054600181600116156101000203166002900480601f01602080910402602001604051908101604052809291908181526020018280546001816001161561010002031660029004801561025f5780601f106102345761010080835404028352916020019161025f565b820191906000526020600020905b81548152906001019060200180831161024257829003601f168201915b5050505050815260200160018201548152602001600282018054600181600116156101000203166002900480601f01602080910402602001604051908101604052809291908181526020018280546001816001161561010002031660029004801561030b5780601f106102e05761010080835404028352916020019161030b565b820191906000526020600020905b8154815290600101906020018083116102ee57829003601f168201915b50505050508152602001600382018054600181600116156101000203166002900480601f0160208091040260200160405190810160405280929190818152602001828054600181600116156101000203166002900480156103ad5780601f10610382576101008083540402835291602001916103ad565b820191906000526020600020905b81548152906001019060200180831161039057829003601f168201915b50505050508152602001600482018054600181600116156101000203166002900480601f01602080910402602001604051908101604052809291908181526020018280546001816001161561010002031660029004801561044f5780601f106104245761010080835404028352916020019161044f565b820191906000526020600020905b81548152906001019060200180831161043257829003601f168201915b5050505050815250509050919050565b6000602052806000526040600020600091509050806000018054600181600116156101000203166002900480601f01602080910402602001604051908101604052809291908181526020018280546001816001161561010002031660029004801561050b5780601f106104e05761010080835404028352916020019161050b565b820191906000526020600020905b8154815290600101906020018083116104ee57829003601f168201915b505050505090806001015490806002018054600181600116156101000203166002900480601f0160208091040260200160405190810160405280929190818152602001828054600181600116156101000203166002900480156105af5780601f10610584576101008083540402835291602001916105af565b820191906000526020600020905b81548152906001019060200180831161059257829003601f168201915b505050505090806003018054600181600116156101000203166002900480601f01602080910402602001604051908101604052809291908181526020018280546001816001161561010002031660029004801561064d5780601f106106225761010080835404028352916020019161064d565b820191906000526020600020905b81548152906001019060200180831161063057829003601f168201915b505050505090806004018054600181600116156101000203166002900480601f0160208091040260200160405190810160405280929190818152602001828054600181600116156101000203166002900480156106eb5780601f106106c0576101008083540402835291602001916106eb565b820191906000526020600020905b8154815290600101906020018083116106ce57829003601f168201915b5050505050905085565b6000600154905090565b6000855111610743576040517f08c379a000000000000000000000000000000000000000000000000000000000815260040161073a90610fb5565b60405180910390fd5b60008411610786576040517f08c379a000000000000000000000000000000000000000000000000000000000815260040161077d90610f55565b60405180910390fd5b60008351116107ca576040517f08c379a00000000000000000000000000000000000000000000000000000000081526004016107c190610ff5565b60405180910390fd5b600082511161080e576040517f08c379a000000000000000000000000000000000000000000000000000000000815260040161080590610fd5565b60405180910390fd5b6000815111610852576040517f08c379a000000000000000000000000000000000000000000000000000000000815260040161084990610f95565b60405180910390fd5b6001600081548092919060010191905055506040518060a0016040528086815260200185815260200184815260200183815260200182815250600080600154815260200190815260200160002060008201518160000190805190602001906108bb929190610995565b506020820151816001015560408201518160020190805190602001906108e2929190610995565b5060608201518160030190805190602001906108ff929190610995565b50608082015181600401908051906020019061091c929190610995565b509050507f5deb042f5b57fad9bee8a229657cf6fc4260ca05a9d431551c7d23d27463bb998585858585604051610957959493929190610e77565b60405180910390a15050505050565b6040518060a0016040528060608152602001600081526020016060815260200160608152602001606081525090565b828054600181600116156101000203166002900490600052602060002090601f016020900481019282601f106109d657805160ff1916838001178555610a04565b82800160010185558215610a04579182015b82811115610a035782518255916020019190600101906109e8565b5b509050610a119190610a15565b5090565b610a3791905b80821115610a33576000816000905550600101610a1b565b5090565b90565b600082601f830112610a4b57600080fd5b8135610a5e610a598261107f565b611052565b91508082526020830160208301858383011115610a7a57600080fd5b610a858382846110ed565b50505092915050565b600081359050610a9d81611140565b92915050565b600080600080600060a08688031215610abb57600080fd5b600086013567ffffffffffffffff811115610ad557600080fd5b610ae188828901610a3a565b9550506020610af288828901610a8e565b945050604086013567ffffffffffffffff811115610b0f57600080fd5b610b1b88828901610a3a565b935050606086013567ffffffffffffffff811115610b3857600080fd5b610b4488828901610a3a565b925050608086013567ffffffffffffffff811115610b6157600080fd5b610b6d88828901610a3a565b9150509295509295909350565b600060208284031215610b8c57600080fd5b6000610b9a84828501610a8e565b91505092915050565b6000610bae826110b6565b610bb881856110d2565b9350610bc88185602086016110fc565b610bd18161112f565b840191505092915050565b6000610be7826110ab565b610bf181856110c1565b9350610c018185602086016110fc565b610c0a8161112f565b840191505092915050565b6000610c20826110ab565b610c2a81856110d2565b9350610c3a8185602086016110fc565b610c438161112f565b840191505092915050565b6000610c5b601f836110d2565b91507f5072696365206d7573742062652067726561746572207468616e207a65726f006000830152602082019050919050565b6000610c9b600d836110d2565b91507f496e76616c696420696e646578000000000000000000000000000000000000006000830152602082019050919050565b6000610cdb601c836110d2565b91507f5075726368617365446174652063616e6e6f7420626520656d707479000000006000830152602082019050919050565b6000610d1b6014836110d2565b91507f4953424e2063616e6e6f7420626520656d7074790000000000000000000000006000830152602082019050919050565b6000610d5b601d836110d2565b91507f5075726368617365456d61696c2063616e6e6f7420626520656d7074790000006000830152602082019050919050565b6000610d9b601b836110d2565b91507f50757263686173656442792063616e6e6f7420626520656d70747900000000006000830152602082019050919050565b600060a0830160008301518482036000860152610deb8282610bdc565b9150506020830151610e006020860182610e59565b5060408301518482036040860152610e188282610bdc565b91505060608301518482036060860152610e328282610bdc565b91505060808301518482036080860152610e4c8282610bdc565b9150508091505092915050565b610e62816110e3565b82525050565b610e71816110e3565b82525050565b600060a0820190508181036000830152610e918188610ba3565b9050610ea06020830187610e68565b8181036040830152610eb28186610ba3565b90508181036060830152610ec68185610ba3565b90508181036080830152610eda8184610ba3565b90509695505050505050565b600060a0820190508181036000830152610f008188610c15565b9050610f0f6020830187610e68565b8181036040830152610f218186610c15565b90508181036060830152610f358185610c15565b90508181036080830152610f498184610c15565b90509695505050505050565b60006020820190508181036000830152610f6e81610c4e565b9050919050565b60006020820190508181036000830152610f8e81610c8e565b9050919050565b60006020820190508181036000830152610fae81610cce565b9050919050565b60006020820190508181036000830152610fce81610d0e565b9050919050565b60006020820190508181036000830152610fee81610d4e565b9050919050565b6000602082019050818103600083015261100e81610d8e565b9050919050565b6000602082019050818103600083015261102f8184610dce565b905092915050565b600060208201905061104c6000830184610e68565b92915050565b6000604051905081810181811067ffffffffffffffff8211171561107557600080fd5b8060405250919050565b600067ffffffffffffffff82111561109657600080fd5b601f19601f8301169050602081019050919050565b600081519050919050565b600081519050919050565b600082825260208201905092915050565b600082825260208201905092915050565b6000819050919050565b82818337600083830152505050565b60005b8381101561111a5780820151818401526020810190506110ff565b83811115611129576000848401525b50505050565b6000601f19601f8301169050919050565b611149816110e3565b811461115457600080fd5b5056fea2646970667358221220d5cfaea828455ee96065f58831196556eb679e065108bc6e7c8e68d07f6174cc64736f6c63430006000033",
  "source": "// SPDX-License-Identifier: MIT\r\npragma solidity ^0.6.0;\r\n\r\npragma experimental ABIEncoderV2; // Enable ABIEncoderV2\r\n\r\ncontract PurchaseBook {\r\n    struct Purchase {\r\n        string ISBN;\r\n        uint256 price;\r\n        string purchasedBy;\r\n        string purchaseEmail;\r\n        string purchaseDate;\r\n    }\r\n\r\n    mapping(uint256 => Purchase) public purchases;\r\n    uint256 public purchaseCount;\r\n\r\n    event ItemPurchased(\r\n        string ISBN,\r\n        uint256 price,\r\n        string purchasedBy,\r\n        string purchaseEmail,\r\n        string purchaseDate\r\n    );\r\n\r\n    constructor() public {\r\n        purchaseCount = 0;\r\n    }\r\n\r\n    receive() external payable {\r\n        // Allows receiving Ethereum\r\n    }\r\n\r\n    function purchaseItem(\r\n        string memory _ISBN,\r\n        uint256 _price,\r\n        string memory _purchasedBy,\r\n        string memory _purchaseEmail,\r\n        string memory _purchaseDate\r\n    ) public payable {\r\n        require(bytes(_ISBN).length > 0, \"ISBN cannot be empty\");\r\n        require(_price > 0, \"Price must be greater than zero\");\r\n        require(bytes(_purchasedBy).length > 0, \"PurchasedBy cannot be empty\");\r\n        require(bytes(_purchaseEmail).length > 0, \"PurchaseEmail cannot be empty\");\r\n        require(bytes(_purchaseDate).length > 0, \"PurchaseDate cannot be empty\");\r\n\r\n        purchaseCount++;\r\n        purchases[purchaseCount] = Purchase({\r\n            ISBN: _ISBN,\r\n            price: _price,\r\n            purchasedBy: _purchasedBy,\r\n            purchaseEmail: _purchaseEmail,\r\n            purchaseDate: _purchaseDate\r\n        });\r\n\r\n        emit ItemPurchased(_ISBN, _price, _purchasedBy, _purchaseEmail, _purchaseDate);\r\n    }\r\n\r\n    function getTotalPurchaseCount() public view returns (uint256) {\r\n        return purchaseCount;\r\n    }\r\n\r\n    function getPurchase(uint256 _index) public view returns (Purchase memory) {\r\n        require(_index > 0 && _index <= purchaseCount, \"Invalid index\");\r\n        return purchases[_index];\r\n    }\r\n}",
  "sourcePath": "C:\\Users\\Kyle\\Documents\\GitHub\\decentralized-trading-platform\\dtp_truffle_project\\contracts\\PurchaseBook.sol",
  "compiler": {
    "name": "solc",
    "version": "0.6.0+commit.26b70077.Emscripten.clang"
  },
  "schemaVersion": "3.4.16",
  "updatedAt": "2023-10-10T07:56:10.069Z",
  "networkType": "ethereum",
  "devdoc": {
    "methods": {}
  },
  "userdoc": {
    "methods": {}
  }
}