{
  "contractName": "PurchaseBook",
  "abi": [
    {
      "inputs": [],
      "stateMutability": "nonpayable",
      "type": "constructor"
    },
    {
      "anonymous": false,
      "inputs": [
        {
          "indexed": false,
          "internalType": "string",
          "name": "ISBN",
          "type": "string"
        },
        {
          "indexed": false,
          "internalType": "uint256",
          "name": "price",
          "type": "uint256"
        },
        {
          "indexed": false,
          "internalType": "string",
          "name": "purchaseEmail",
          "type": "string"
        },
        {
          "indexed": false,
          "internalType": "string",
          "name": "purchaseDate",
          "type": "string"
        }
      ],
      "name": "ItemPurchased",
      "type": "event"
    },
    {
      "inputs": [],
      "name": "purchaseCount",
      "outputs": [
        {
          "internalType": "uint256",
          "name": "",
          "type": "uint256"
        }
      ],
      "stateMutability": "view",
      "type": "function",
      "constant": true
    },
    {
      "inputs": [
        {
          "internalType": "uint256",
          "name": "",
          "type": "uint256"
        }
      ],
      "name": "purchases",
      "outputs": [
        {
          "internalType": "string",
          "name": "ISBN",
          "type": "string"
        },
        {
          "internalType": "uint256",
          "name": "price",
          "type": "uint256"
        },
        {
          "internalType": "string",
          "name": "purchaseEmail",
          "type": "string"
        },
        {
          "internalType": "string",
          "name": "purchaseDate",
          "type": "string"
        }
      ],
      "stateMutability": "view",
      "type": "function",
      "constant": true
    },
    {
      "stateMutability": "payable",
      "type": "receive",
      "payable": true
    },
    {
      "inputs": [
        {
          "internalType": "string",
          "name": "_ISBN",
          "type": "string"
        },
        {
          "internalType": "uint256",
          "name": "_price",
          "type": "uint256"
        },
        {
          "internalType": "string",
          "name": "_purchaseEmail",
          "type": "string"
        },
        {
          "internalType": "string",
          "name": "_purchaseDate",
          "type": "string"
        }
      ],
      "name": "purchaseItem",
      "outputs": [],
      "stateMutability": "payable",
      "type": "function",
      "payable": true
    },
    {
      "inputs": [],
      "name": "getTotalPurchaseCount",
      "outputs": [
        {
          "internalType": "uint256",
          "name": "",
          "type": "uint256"
        }
      ],
      "stateMutability": "view",
      "type": "function",
      "constant": true
    },
    {
      "inputs": [
        {
          "internalType": "uint256",
          "name": "_index",
          "type": "uint256"
        }
      ],
      "name": "getPurchase",
      "outputs": [
        {
          "components": [
            {
              "internalType": "string",
              "name": "ISBN",
              "type": "string"
            },
            {
              "internalType": "uint256",
              "name": "price",
              "type": "uint256"
            },
            {
              "internalType": "string",
              "name": "purchaseEmail",
              "type": "string"
            },
            {
              "internalType": "string",
              "name": "purchaseDate",
              "type": "string"
            }
          ],
          "internalType": "struct PurchaseBook.Purchase",
          "name": "",
          "type": "tuple"
        }
      ],
      "stateMutability": "view",
      "type": "function",
      "constant": true
    }
  ],
  "bytecode": "0x608060405234801561001057600080fd5b506000600181905550610f0b806100286000396000f3fe60806040526004361061004e5760003560e01c80632b85ed9c1461005a5780633328075b146100855780633742a9f7146100a15780638392fe31146100de5780639348fd3f1461011e57610055565b3661005557005b600080fd5b34801561006657600080fd5b5061006f610149565b60405161007c9190610db5565b60405180910390f35b61009f600480360361009a91908101906108f1565b61014f565b005b3480156100ad57600080fd5b506100c860048036036100c3919081019061099c565b61034c565b6040516100d59190610d93565b60405180910390f35b3480156100ea57600080fd5b506101056004803603610100919081019061099c565b6105b9565b6040516101159493929190610c99565b60405180910390f35b34801561012a57600080fd5b506101336107b1565b6040516101409190610db5565b60405180910390f35b60015481565b6000845111610193576040517f08c379a000000000000000000000000000000000000000000000000000000000815260040161018a90610d53565b60405180910390fd5b600083116101d6576040517f08c379a00000000000000000000000000000000000000000000000000000000081526004016101cd90610cf3565b60405180910390fd5b600082511161021a576040517f08c379a000000000000000000000000000000000000000000000000000000000815260040161021190610d73565b60405180910390fd5b600081511161025e576040517f08c379a000000000000000000000000000000000000000000000000000000000815260040161025590610d33565b60405180910390fd5b600160008154809291906001019190505550604051806080016040528085815260200184815260200183815260200182815250600080600154815260200190815260200160002060008201518160000190805190602001906102c19291906107bb565b506020820151816001015560408201518160020190805190602001906102e89291906107bb565b5060608201518160030190805190602001906103059291906107bb565b509050507f9802785275864d5bf73bb63298146039f01408b9f99827757cb3d0a67b20c4be8484848460405161033e9493929190610c3f565b60405180910390a150505050565b61035461083b565b60008211801561036657506001548211155b6103a5576040517f08c379a000000000000000000000000000000000000000000000000000000000815260040161039c90610d13565b60405180910390fd5b600080838152602001908152602001600020604051806080016040529081600082018054600181600116156101000203166002900480601f01602080910402602001604051908101604052809291908181526020018280546001816001161561010002031660029004801561045b5780601f106104305761010080835404028352916020019161045b565b820191906000526020600020905b81548152906001019060200180831161043e57829003601f168201915b5050505050815260200160018201548152602001600282018054600181600116156101000203166002900480601f0160208091040260200160405190810160405280929190818152602001828054600181600116156101000203166002900480156105075780601f106104dc57610100808354040283529160200191610507565b820191906000526020600020905b8154815290600101906020018083116104ea57829003601f168201915b50505050508152602001600382018054600181600116156101000203166002900480601f0160208091040260200160405190810160405280929190818152602001828054600181600116156101000203166002900480156105a95780601f1061057e576101008083540402835291602001916105a9565b820191906000526020600020905b81548152906001019060200180831161058c57829003601f168201915b5050505050815250509050919050565b6000602052806000526040600020600091509050806000018054600181600116156101000203166002900480601f0160208091040260200160405190810160405280929190818152602001828054600181600116156101000203166002900480156106655780601f1061063a57610100808354040283529160200191610665565b820191906000526020600020905b81548152906001019060200180831161064857829003601f168201915b505050505090806001015490806002018054600181600116156101000203166002900480601f0160208091040260200160405190810160405280929190818152602001828054600181600116156101000203166002900480156107095780601f106106de57610100808354040283529160200191610709565b820191906000526020600020905b8154815290600101906020018083116106ec57829003601f168201915b505050505090806003018054600181600116156101000203166002900480601f0160208091040260200160405190810160405280929190818152602001828054600181600116156101000203166002900480156107a75780601f1061077c576101008083540402835291602001916107a7565b820191906000526020600020905b81548152906001019060200180831161078a57829003601f168201915b5050505050905084565b6000600154905090565b828054600181600116156101000203166002900490600052602060002090601f016020900481019282601f106107fc57805160ff191683800117855561082a565b8280016001018555821561082a579182015b8281111561082957825182559160200191906001019061080e565b5b5090506108379190610863565b5090565b6040518060800160405280606081526020016000815260200160608152602001606081525090565b61088591905b80821115610881576000816000905550600101610869565b5090565b90565b600082601f83011261089957600080fd5b81356108ac6108a782610dfd565b610dd0565b915080825260208301602083018583830111156108c857600080fd5b6108d3838284610e6b565b50505092915050565b6000813590506108eb81610ebe565b92915050565b6000806000806080858703121561090757600080fd5b600085013567ffffffffffffffff81111561092157600080fd5b61092d87828801610888565b945050602061093e878288016108dc565b935050604085013567ffffffffffffffff81111561095b57600080fd5b61096787828801610888565b925050606085013567ffffffffffffffff81111561098457600080fd5b61099087828801610888565b91505092959194509250565b6000602082840312156109ae57600080fd5b60006109bc848285016108dc565b91505092915050565b60006109d082610e34565b6109da8185610e50565b93506109ea818560208601610e7a565b6109f381610ead565b840191505092915050565b6000610a0982610e29565b610a138185610e3f565b9350610a23818560208601610e7a565b610a2c81610ead565b840191505092915050565b6000610a4282610e29565b610a4c8185610e50565b9350610a5c818560208601610e7a565b610a6581610ead565b840191505092915050565b6000610a7d601f83610e50565b91507f5072696365206d7573742062652067726561746572207468616e207a65726f006000830152602082019050919050565b6000610abd600d83610e50565b91507f496e76616c696420696e646578000000000000000000000000000000000000006000830152602082019050919050565b6000610afd601c83610e50565b91507f5075726368617365446174652063616e6e6f7420626520656d707479000000006000830152602082019050919050565b6000610b3d601483610e50565b91507f4953424e2063616e6e6f7420626520656d7074790000000000000000000000006000830152602082019050919050565b6000610b7d601d83610e50565b91507f5075726368617365456d61696c2063616e6e6f7420626520656d7074790000006000830152602082019050919050565b60006080830160008301518482036000860152610bcd82826109fe565b9150506020830151610be26020860182610c21565b5060408301518482036040860152610bfa82826109fe565b91505060608301518482036060860152610c1482826109fe565b9150508091505092915050565b610c2a81610e61565b82525050565b610c3981610e61565b82525050565b60006080820190508181036000830152610c5981876109c5565b9050610c686020830186610c30565b8181036040830152610c7a81856109c5565b90508181036060830152610c8e81846109c5565b905095945050505050565b60006080820190508181036000830152610cb38187610a37565b9050610cc26020830186610c30565b8181036040830152610cd48185610a37565b90508181036060830152610ce88184610a37565b905095945050505050565b60006020820190508181036000830152610d0c81610a70565b9050919050565b60006020820190508181036000830152610d2c81610ab0565b9050919050565b60006020820190508181036000830152610d4c81610af0565b9050919050565b60006020820190508181036000830152610d6c81610b30565b9050919050565b60006020820190508181036000830152610d8c81610b70565b9050919050565b60006020820190508181036000830152610dad8184610bb0565b905092915050565b6000602082019050610dca6000830184610c30565b92915050565b6000604051905081810181811067ffffffffffffffff82111715610df357600080fd5b8060405250919050565b600067ffffffffffffffff821115610e1457600080fd5b601f19601f8301169050602081019050919050565b600081519050919050565b600081519050919050565b600082825260208201905092915050565b600082825260208201905092915050565b6000819050919050565b82818337600083830152505050565b60005b83811015610e98578082015181840152602081019050610e7d565b83811115610ea7576000848401525b50505050565b6000601f19601f8301169050919050565b610ec781610e61565b8114610ed257600080fd5b5056fea264697066735822122039e006229fa152ff87b854ad0fb02f1e6b58e3251d87c67b2aed8be71747470c64736f6c63430006000033",
  "source": "// SPDX-License-Identifier: MIT\r\npragma solidity ^0.6.0;\r\n\r\npragma experimental ABIEncoderV2; // Enable ABIEncoderV2\r\n\r\ncontract PurchaseBook {\r\n    struct Purchase {\r\n        string ISBN;\r\n        uint256 price;\r\n        string purchaseEmail;\r\n        string purchaseDate;\r\n    }\r\n\r\n    mapping(uint256 => Purchase) public purchases;\r\n    uint256 public purchaseCount;\r\n\r\n    event ItemPurchased(\r\n        string ISBN,\r\n        uint256 price,\r\n        string purchaseEmail,\r\n        string purchaseDate\r\n    );\r\n\r\n    constructor() public {\r\n        purchaseCount = 0;\r\n    }\r\n\r\n    receive() external payable {\r\n        // Allows receiving Ethereum\r\n    }\r\n\r\n    function purchaseItem(\r\n        string memory _ISBN,\r\n        uint256 _price,\r\n        string memory _purchaseEmail,\r\n        string memory _purchaseDate\r\n    ) public payable {\r\n        require(bytes(_ISBN).length > 0, \"ISBN cannot be empty\");\r\n        require(_price > 0, \"Price must be greater than zero\");\r\n        require(bytes(_purchaseEmail).length > 0, \"PurchaseEmail cannot be empty\");\r\n        require(bytes(_purchaseDate).length > 0, \"PurchaseDate cannot be empty\");\r\n\r\n        purchaseCount++;\r\n        purchases[purchaseCount] = Purchase({\r\n            ISBN: _ISBN,\r\n            price: _price,\r\n            purchaseEmail: _purchaseEmail,\r\n            purchaseDate: _purchaseDate\r\n        });\r\n\r\n        emit ItemPurchased(_ISBN, _price, _purchaseEmail, _purchaseDate);\r\n    }\r\n\r\n    function getTotalPurchaseCount() public view returns (uint256) {\r\n        return purchaseCount;\r\n    }\r\n\r\n    function getPurchase(uint256 _index) public view returns (Purchase memory) {\r\n        require(_index > 0 && _index <= purchaseCount, \"Invalid index\");\r\n        return purchases[_index];\r\n    }\r\n}",
  "sourcePath": "C:\\Users\\alvis\\Documents\\Github\\decentralized-trading-platform\\dtp_truffle_project\\contracts\\PurchaseBook.sol",
  "compiler": {
    "name": "solc",
    "version": "0.6.0+commit.26b70077.Emscripten.clang"
  },
  "schemaVersion": "3.4.16",
  "updatedAt": "2023-10-14T10:20:26.834Z",
  "networkType": "ethereum",
  "devdoc": {
    "methods": {}
  },
  "userdoc": {
    "methods": {}
  }
}